{
  "_format": "hh-sol-artifact-1",
  "contractName": "GnosisSafeAccountFactory",
  "sourceName": "contracts/samples/gnosis/GnosisAccountFactory.sol",
  "abi": [
    {
      "inputs": [
        {
          "internalType": "contract GnosisSafeProxyFactory",
          "name": "_proxyFactory",
          "type": "address"
        },
        {
          "internalType": "address",
          "name": "_safeSingleton",
          "type": "address"
        },
        {
          "internalType": "contract EIP4337Manager",
          "name": "_eip4337Manager",
          "type": "address"
        }
      ],
      "stateMutability": "nonpayable",
      "type": "constructor"
    },
    {
      "inputs": [
        {
          "internalType": "address",
          "name": "owner",
          "type": "address"
        },
        {
          "internalType": "uint256",
          "name": "salt",
          "type": "uint256"
        }
      ],
      "name": "createAccount",
      "outputs": [
        {
          "internalType": "address",
          "name": "",
          "type": "address"
        }
      ],
      "stateMutability": "nonpayable",
      "type": "function"
    },
    {
      "inputs": [],
      "name": "eip4337Manager",
      "outputs": [
        {
          "internalType": "contract EIP4337Manager",
          "name": "",
          "type": "address"
        }
      ],
      "stateMutability": "view",
      "type": "function"
    },
    {
      "inputs": [
        {
          "internalType": "address",
          "name": "owner",
          "type": "address"
        },
        {
          "internalType": "uint256",
          "name": "salt",
          "type": "uint256"
        }
      ],
      "name": "getAddress",
      "outputs": [
        {
          "internalType": "address",
          "name": "",
          "type": "address"
        }
      ],
      "stateMutability": "view",
      "type": "function"
    },
    {
      "inputs": [],
      "name": "proxyFactory",
      "outputs": [
        {
          "internalType": "contract GnosisSafeProxyFactory",
          "name": "",
          "type": "address"
        }
      ],
      "stateMutability": "view",
      "type": "function"
    },
    {
      "inputs": [],
      "name": "safeSingleton",
      "outputs": [
        {
          "internalType": "address",
          "name": "",
          "type": "address"
        }
      ],
      "stateMutability": "view",
      "type": "function"
    }
  ],
  "bytecode": "0x60e060405234801561001057600080fd5b50604051610ba3380380610ba383398101604081905261002f91610064565b6001600160a01b0392831660805290821660a0521660c0526100b1565b6001600160a01b038116811461006157600080fd5b50565b60008060006060848603121561007957600080fd5b83516100848161004c565b60208501519093506100958161004c565b60408501519092506100a68161004c565b809150509250925092565b60805160a05160c051610a8d610116600039600081816071015281816104d50152818161057c015261062e01526000818160e7015281816101a3015261033801526000818161010e015281816101670152818161028701526103db0152610a8d6000f3fe608060405234801561001057600080fd5b50600436106100675760003560e01c80638cb84e18116100505780638cb84e18146100cf578063ac7d146b146100e2578063c10f1a751461010957600080fd5b80630e8ac4881461006c5780635fbfb9cf146100bc575b600080fd5b6100937f000000000000000000000000000000000000000000000000000000000000000081565b60405173ffffffffffffffffffffffffffffffffffffffff909116815260200160405180910390f35b6100936100ca366004610706565b610130565b6100936100dd366004610706565b610238565b6100937f000000000000000000000000000000000000000000000000000000000000000081565b6100937f000000000000000000000000000000000000000000000000000000000000000081565b60008061013d8484610238565b905073ffffffffffffffffffffffffffffffffffffffff81163b801561016557509050610232565b7f000000000000000000000000000000000000000000000000000000000000000073ffffffffffffffffffffffffffffffffffffffff16631688f0b97f00000000000000000000000000000000000000000000000000000000000000006101cb88610457565b876040518463ffffffff1660e01b81526004016101ea939291906107ac565b6020604051808303816000875af1158015610209573d6000803e3d6000fd5b505050506040513d601f19601f8201168201806040525081019061022d91906107eb565b925050505b92915050565b60008061024484610457565b9050600081805190602001208460405160200161026b929190918252602082015260400190565b60405160208183030381529060405280519060200120905060007f000000000000000000000000000000000000000000000000000000000000000073ffffffffffffffffffffffffffffffffffffffff166353e5d9356040518163ffffffff1660e01b8152600401600060405180830381865afa1580156102f0573d6000803e3d6000fd5b505050506040513d6000823e601f3d9081017fffffffffffffffffffffffffffffffffffffffffffffffffffffffffffffffe0168201604052610336919081019061083e565b7f000000000000000000000000000000000000000000000000000000000000000073ffffffffffffffffffffffffffffffffffffffff1660405160200161037e929190610909565b604080518083037fffffffffffffffffffffffffffffffffffffffffffffffffffffffffffffffe001815282825280516020918201207fff00000000000000000000000000000000000000000000000000000000000000828501527f000000000000000000000000000000000000000000000000000000000000000060601b7fffffffffffffffffffffffffffffffffffffffff00000000000000000000000016602185015260358401959095526055808401959095528151808403909501855260759092019052825192019190912095945050505050565b604080516001808252818301909252606091600091906020808301908036833701905050905082816000815181106104915761049161092b565b602002602001019073ffffffffffffffffffffffffffffffffffffffff16908173ffffffffffffffffffffffffffffffffffffffff168152505060006001905060007f000000000000000000000000000000000000000000000000000000000000000073ffffffffffffffffffffffffffffffffffffffff166370b8a01d6040518163ffffffff1660e01b8152600401602060405180830381865afa15801561053e573d6000803e3d6000fd5b505050506040513d601f19601f8201168201806040525081019061056291906107eb565b60405173ffffffffffffffffffffffffffffffffffffffff7f0000000000000000000000000000000000000000000000000000000000000000166024820152909150600090604401604080517fffffffffffffffffffffffffffffffffffffffffffffffffffffffffffffffe08184030181529181526020820180517bffffffffffffffffffffffffffffffffffffffffffffffffffffffff167fd041593b000000000000000000000000000000000000000000000000000000001790525190915061066190859085907f000000000000000000000000000000000000000000000000000000000000000090859087906000908190819060240161095a565b604080517fffffffffffffffffffffffffffffffffffffffffffffffffffffffffffffffe08184030181529190526020810180517bffffffffffffffffffffffffffffffffffffffffffffffffffffffff167fb63e800d000000000000000000000000000000000000000000000000000000001790529695505050505050565b73ffffffffffffffffffffffffffffffffffffffff8116811461070357600080fd5b50565b6000806040838503121561071957600080fd5b8235610724816106e1565b946020939093013593505050565b60005b8381101561074d578181015183820152602001610735565b8381111561075c576000848401525b50505050565b6000815180845261077a816020860160208601610732565b601f017fffffffffffffffffffffffffffffffffffffffffffffffffffffffffffffffe0169290920160200192915050565b73ffffffffffffffffffffffffffffffffffffffff841681526060602082015260006107db6060830185610762565b9050826040830152949350505050565b6000602082840312156107fd57600080fd5b8151610808816106e1565b9392505050565b7f4e487b7100000000000000000000000000000000000000000000000000000000600052604160045260246000fd5b60006020828403121561085057600080fd5b815167ffffffffffffffff8082111561086857600080fd5b818401915084601f83011261087c57600080fd5b81518181111561088e5761088e61080f565b604051601f82017fffffffffffffffffffffffffffffffffffffffffffffffffffffffffffffffe0908116603f011681019083821181831017156108d4576108d461080f565b816040528281528760208487010111156108ed57600080fd5b6108fe836020830160208801610732565b979650505050505050565b6000835161091b818460208801610732565b9190910191825250602001919050565b7f4e487b7100000000000000000000000000000000000000000000000000000000600052603260045260246000fd5b6101008082528951908201819052600090610120830190602090818d01845b828110156109ab57815173ffffffffffffffffffffffffffffffffffffffff1685529383019390830190600101610979565b50505083018a905273ffffffffffffffffffffffffffffffffffffffff8916604084015282810360608401526109e18189610762565b915050610a06608083018773ffffffffffffffffffffffffffffffffffffffff169052565b73ffffffffffffffffffffffffffffffffffffffff851660a08301528360c0830152610a4a60e083018473ffffffffffffffffffffffffffffffffffffffff169052565b999850505050505050505056fea26469706673582212209c20e45e2600627584e2fdb26512ebca7fc4222088c3e328145d474f3632c1b764736f6c634300080f0033",
  "linkReferences": {},
  "deployedLinkReferences": {}
}