{
    "_format": "hh-sol-artifact-1",
    "contractName": "BananaToken",
    "sourceName": "contracts/BananaToken.sol",
    "abi": [
        {
            "inputs": [],
            "stateMutability": "nonpayable",
            "type": "constructor"
        },
        {
            "anonymous": false,
            "inputs": [
                {
                    "indexed": true,
                    "internalType": "address",
                    "name": "owner",
                    "type": "address"
                },
                {
                    "indexed": true,
                    "internalType": "address",
                    "name": "approved",
                    "type": "address"
                },
                {
                    "indexed": true,
                    "internalType": "uint256",
                    "name": "tokenId",
                    "type": "uint256"
                }
            ],
            "name": "Approval",
            "type": "event"
        },
        {
            "anonymous": false,
            "inputs": [
                {
                    "indexed": true,
                    "internalType": "address",
                    "name": "owner",
                    "type": "address"
                },
                {
                    "indexed": true,
                    "internalType": "address",
                    "name": "operator",
                    "type": "address"
                },
                {
                    "indexed": false,
                    "internalType": "bool",
                    "name": "approved",
                    "type": "bool"
                }
            ],
            "name": "ApprovalForAll",
            "type": "event"
        },
        {
            "inputs": [
                {
                    "internalType": "address",
                    "name": "to",
                    "type": "address"
                },
                {
                    "internalType": "uint256",
                    "name": "tokenId",
                    "type": "uint256"
                }
            ],
            "name": "approve",
            "outputs": [],
            "stateMutability": "nonpayable",
            "type": "function"
        },
        {
            "inputs": [
                {
                    "internalType": "address",
                    "name": "to",
                    "type": "address"
                }
            ],
            "name": "safeMint",
            "outputs": [],
            "stateMutability": "nonpayable",
            "type": "function"
        },
        {
            "inputs": [
                {
                    "internalType": "address",
                    "name": "from",
                    "type": "address"
                },
                {
                    "internalType": "address",
                    "name": "to",
                    "type": "address"
                },
                {
                    "internalType": "uint256",
                    "name": "tokenId",
                    "type": "uint256"
                }
            ],
            "name": "safeTransferFrom",
            "outputs": [],
            "stateMutability": "nonpayable",
            "type": "function"
        },
        {
            "inputs": [
                {
                    "internalType": "address",
                    "name": "from",
                    "type": "address"
                },
                {
                    "internalType": "address",
                    "name": "to",
                    "type": "address"
                },
                {
                    "internalType": "uint256",
                    "name": "tokenId",
                    "type": "uint256"
                },
                {
                    "internalType": "bytes",
                    "name": "data",
                    "type": "bytes"
                }
            ],
            "name": "safeTransferFrom",
            "outputs": [],
            "stateMutability": "nonpayable",
            "type": "function"
        },
        {
            "inputs": [
                {
                    "internalType": "address",
                    "name": "operator",
                    "type": "address"
                },
                {
                    "internalType": "bool",
                    "name": "approved",
                    "type": "bool"
                }
            ],
            "name": "setApprovalForAll",
            "outputs": [],
            "stateMutability": "nonpayable",
            "type": "function"
        },
        {
            "anonymous": false,
            "inputs": [
                {
                    "indexed": true,
                    "internalType": "address",
                    "name": "from",
                    "type": "address"
                },
                {
                    "indexed": true,
                    "internalType": "address",
                    "name": "to",
                    "type": "address"
                },
                {
                    "indexed": true,
                    "internalType": "uint256",
                    "name": "tokenId",
                    "type": "uint256"
                }
            ],
            "name": "Transfer",
            "type": "event"
        },
        {
            "inputs": [
                {
                    "internalType": "address",
                    "name": "from",
                    "type": "address"
                },
                {
                    "internalType": "address",
                    "name": "to",
                    "type": "address"
                },
                {
                    "internalType": "uint256",
                    "name": "tokenId",
                    "type": "uint256"
                }
            ],
            "name": "transferFrom",
            "outputs": [],
            "stateMutability": "nonpayable",
            "type": "function"
        },
        {
            "inputs": [
                {
                    "internalType": "address",
                    "name": "owner",
                    "type": "address"
                }
            ],
            "name": "balanceOf",
            "outputs": [
                {
                    "internalType": "uint256",
                    "name": "",
                    "type": "uint256"
                }
            ],
            "stateMutability": "view",
            "type": "function"
        },
        {
            "inputs": [
                {
                    "internalType": "uint256",
                    "name": "tokenId",
                    "type": "uint256"
                }
            ],
            "name": "getApproved",
            "outputs": [
                {
                    "internalType": "address",
                    "name": "",
                    "type": "address"
                }
            ],
            "stateMutability": "view",
            "type": "function"
        },
        {
            "inputs": [
                {
                    "internalType": "address",
                    "name": "owner",
                    "type": "address"
                },
                {
                    "internalType": "address",
                    "name": "operator",
                    "type": "address"
                }
            ],
            "name": "isApprovedForAll",
            "outputs": [
                {
                    "internalType": "bool",
                    "name": "",
                    "type": "bool"
                }
            ],
            "stateMutability": "view",
            "type": "function"
        },
        {
            "inputs": [],
            "name": "name",
            "outputs": [
                {
                    "internalType": "string",
                    "name": "",
                    "type": "string"
                }
            ],
            "stateMutability": "view",
            "type": "function"
        },
        {
            "inputs": [
                {
                    "internalType": "uint256",
                    "name": "tokenId",
                    "type": "uint256"
                }
            ],
            "name": "ownerOf",
            "outputs": [
                {
                    "internalType": "address",
                    "name": "",
                    "type": "address"
                }
            ],
            "stateMutability": "view",
            "type": "function"
        },
        {
            "inputs": [
                {
                    "internalType": "bytes4",
                    "name": "interfaceId",
                    "type": "bytes4"
                }
            ],
            "name": "supportsInterface",
            "outputs": [
                {
                    "internalType": "bool",
                    "name": "",
                    "type": "bool"
                }
            ],
            "stateMutability": "view",
            "type": "function"
        },
        {
            "inputs": [],
            "name": "symbol",
            "outputs": [
                {
                    "internalType": "string",
                    "name": "",
                    "type": "string"
                }
            ],
            "stateMutability": "view",
            "type": "function"
        },
        {
            "inputs": [
                {
                    "internalType": "uint256",
                    "name": "tokenId",
                    "type": "uint256"
                }
            ],
            "name": "tokenURI",
            "outputs": [
                {
                    "internalType": "string",
                    "name": "",
                    "type": "string"
                }
            ],
            "stateMutability": "view",
            "type": "function"
        }
    ],
    "bytecode": "0x60806040523480156200001157600080fd5b506040518060400160405280600b81526020016a2130b730b730aa37b5b2b760a91b8152506040518060400160405280600681526020016542414e414e4160d01b815250816000908162000066919062000193565b50600162000075828262000193565b505050620000926200008c6200009860201b60201c565b6200009c565b6200025f565b3390565b600780546001600160a01b038381166001600160a01b0319831681179093556040519116919082907f8be0079c531659141344cd1fd0a4f28419497f9722a3daafe3b4186f6b6457e090600090a35050565b634e487b7160e01b600052604160045260246000fd5b600181811c908216806200011957607f821691505b6020821081036200013a57634e487b7160e01b600052602260045260246000fd5b50919050565b601f8211156200018e57600081815260208120601f850160051c81016020861015620001695750805b601f850160051c820191505b818110156200018a5782815560010162000175565b5050505b505050565b81516001600160401b03811115620001af57620001af620000ee565b620001c781620001c0845462000104565b8462000140565b602080601f831160018114620001ff5760008415620001e65750858301515b600019600386901b1c1916600185901b1785556200018a565b600085815260208120601f198616915b8281101562000230578886015182559484019460019091019084016200020f565b50858210156200024f5787850151600019600388901b60f8161c191681555b5050505050600190811b01905550565b61227f806200026f6000396000f3fe608060405234801561001057600080fd5b50600436106101365760003560e01c8063715018a6116100b2578063b88d4fde11610081578063d204c45e11610066578063d204c45e14610299578063e985e9c5146102ac578063f2fde38b146102f557600080fd5b8063b88d4fde14610273578063c87b56dd1461028657600080fd5b8063715018a6146102325780638da5cb5b1461023a57806395d89b4114610258578063a22cb4651461026057600080fd5b806323b872dd1161010957806342966c68116100ee57806342966c68146101eb5780636352211e146101fe57806370a082311461021157600080fd5b806323b872dd146101c557806342842e0e146101d857600080fd5b806301ffc9a71461013b57806306fdde0314610163578063081812fc14610178578063095ea7b3146101b0575b600080fd5b61014e610149366004611b64565b610308565b60405190151581526020015b60405180910390f35b61016b6103ed565b60405161015a9190611bf7565b61018b610186366004611c0a565b61047f565b60405173ffffffffffffffffffffffffffffffffffffffff909116815260200161015a565b6101c36101be366004611c4c565b6104b3565b005b6101c36101d3366004611c76565b610644565b6101c36101e6366004611c76565b6106e6565b6101c36101f9366004611c0a565b610701565b61018b61020c366004611c0a565b6107a2565b61022461021f366004611cb2565b61082e565b60405190815260200161015a565b6101c36108fc565b60075473ffffffffffffffffffffffffffffffffffffffff1661018b565b61016b610910565b6101c361026e366004611ccd565b61091f565b6101c3610281366004611dcc565b61092e565b61016b610294366004611c0a565b6109d6565b6101c36102a7366004611e48565b6109e1565b61014e6102ba366004611eaa565b73ffffffffffffffffffffffffffffffffffffffff918216600090815260056020908152604080832093909416825291909152205460ff1690565b6101c3610303366004611cb2565b610a18565b60007fffffffff0000000000000000000000000000000000000000000000000000000082167f80ac58cd00000000000000000000000000000000000000000000000000000000148061039b57507fffffffff0000000000000000000000000000000000000000000000000000000082167f5b5e139f00000000000000000000000000000000000000000000000000000000145b806103e757507f01ffc9a7000000000000000000000000000000000000000000000000000000007fffffffff000000000000000000000000000000000000000000000000000000008316145b92915050565b6060600080546103fc90611edd565b80601f016020809104026020016040519081016040528092919081815260200182805461042890611edd565b80156104755780601f1061044a57610100808354040283529160200191610475565b820191906000526020600020905b81548152906001019060200180831161045857829003601f168201915b5050505050905090565b600061048a82610acc565b5060009081526004602052604090205473ffffffffffffffffffffffffffffffffffffffff1690565b60006104be826107a2565b90508073ffffffffffffffffffffffffffffffffffffffff168373ffffffffffffffffffffffffffffffffffffffff1603610580576040517f08c379a000000000000000000000000000000000000000000000000000000000815260206004820152602160248201527f4552433732313a20617070726f76616c20746f2063757272656e74206f776e6560448201527f720000000000000000000000000000000000000000000000000000000000000060648201526084015b60405180910390fd5b3373ffffffffffffffffffffffffffffffffffffffff821614806105a957506105a981336102ba565b610635576040517f08c379a000000000000000000000000000000000000000000000000000000000815260206004820152603e60248201527f4552433732313a20617070726f76652063616c6c6572206973206e6f7420746f60448201527f6b656e206f776e6572206e6f7220617070726f76656420666f7220616c6c00006064820152608401610577565b61063f8383610b57565b505050565b61064f335b82610bf7565b6106db576040517f08c379a000000000000000000000000000000000000000000000000000000000815260206004820152602e60248201527f4552433732313a2063616c6c6572206973206e6f7420746f6b656e206f776e6560448201527f72206e6f7220617070726f7665640000000000000000000000000000000000006064820152608401610577565b61063f838383610cb7565b61063f8383836040518060200160405280600081525061092e565b61070a33610649565b610796576040517f08c379a000000000000000000000000000000000000000000000000000000000815260206004820152602e60248201527f4552433732313a2063616c6c6572206973206e6f7420746f6b656e206f776e6560448201527f72206e6f7220617070726f7665640000000000000000000000000000000000006064820152608401610577565b61079f81610f1e565b50565b60008181526002602052604081205473ffffffffffffffffffffffffffffffffffffffff16806103e7576040517f08c379a000000000000000000000000000000000000000000000000000000000815260206004820152601860248201527f4552433732313a20696e76616c696420746f6b656e20494400000000000000006044820152606401610577565b600073ffffffffffffffffffffffffffffffffffffffff82166108d3576040517f08c379a000000000000000000000000000000000000000000000000000000000815260206004820152602960248201527f4552433732313a2061646472657373207a65726f206973206e6f74206120766160448201527f6c6964206f776e657200000000000000000000000000000000000000000000006064820152608401610577565b5073ffffffffffffffffffffffffffffffffffffffff1660009081526003602052604090205490565b610904610f27565b61090e6000610fa8565b565b6060600180546103fc90611edd565b61092a33838361101f565b5050565b6109383383610bf7565b6109c4576040517f08c379a000000000000000000000000000000000000000000000000000000000815260206004820152602e60248201527f4552433732313a2063616c6c6572206973206e6f7420746f6b656e206f776e6560448201527f72206e6f7220617070726f7665640000000000000000000000000000000000006064820152608401610577565b6109d08484848461114c565b50505050565b60606103e7826111ef565b6109e9610f27565b60006109f460085490565b9050610a04600880546001019055565b610a0e83826112f7565b61063f8183611311565b610a20610f27565b73ffffffffffffffffffffffffffffffffffffffff8116610ac3576040517f08c379a000000000000000000000000000000000000000000000000000000000815260206004820152602660248201527f4f776e61626c653a206e6577206f776e657220697320746865207a65726f206160448201527f64647265737300000000000000000000000000000000000000000000000000006064820152608401610577565b61079f81610fa8565b60008181526002602052604090205473ffffffffffffffffffffffffffffffffffffffff1661079f576040517f08c379a000000000000000000000000000000000000000000000000000000000815260206004820152601860248201527f4552433732313a20696e76616c696420746f6b656e20494400000000000000006044820152606401610577565b600081815260046020526040902080547fffffffffffffffffffffffff00000000000000000000000000000000000000001673ffffffffffffffffffffffffffffffffffffffff84169081179091558190610bb1826107a2565b73ffffffffffffffffffffffffffffffffffffffff167f8c5be1e5ebec7d5bd14f71427d1e84f3dd0314c0f7b2291e5b200ac8c7c3b92560405160405180910390a45050565b600080610c03836107a2565b90508073ffffffffffffffffffffffffffffffffffffffff168473ffffffffffffffffffffffffffffffffffffffff161480610c71575073ffffffffffffffffffffffffffffffffffffffff80821660009081526005602090815260408083209388168352929052205460ff165b80610caf57508373ffffffffffffffffffffffffffffffffffffffff16610c978461047f565b73ffffffffffffffffffffffffffffffffffffffff16145b949350505050565b8273ffffffffffffffffffffffffffffffffffffffff16610cd7826107a2565b73ffffffffffffffffffffffffffffffffffffffff1614610d7a576040517f08c379a000000000000000000000000000000000000000000000000000000000815260206004820152602560248201527f4552433732313a207472616e736665722066726f6d20696e636f72726563742060448201527f6f776e65720000000000000000000000000000000000000000000000000000006064820152608401610577565b73ffffffffffffffffffffffffffffffffffffffff8216610e1c576040517f08c379a0000000000000000000000000000000000000000000000000000000008152602060048201526024808201527f4552433732313a207472616e7366657220746f20746865207a65726f2061646460448201527f72657373000000000000000000000000000000000000000000000000000000006064820152608401610577565b610e27600082610b57565b73ffffffffffffffffffffffffffffffffffffffff83166000908152600360205260408120805460019290610e5d908490611f5f565b909155505073ffffffffffffffffffffffffffffffffffffffff82166000908152600360205260408120805460019290610e98908490611f76565b909155505060008181526002602052604080822080547fffffffffffffffffffffffff00000000000000000000000000000000000000001673ffffffffffffffffffffffffffffffffffffffff86811691821790925591518493918716917fddf252ad1be2c89b69c2b068fc378daa952ba7f163c4a11628f55a4df523b3ef91a4505050565b61079f816113da565b60075473ffffffffffffffffffffffffffffffffffffffff16331461090e576040517f08c379a000000000000000000000000000000000000000000000000000000000815260206004820181905260248201527f4f776e61626c653a2063616c6c6572206973206e6f7420746865206f776e65726044820152606401610577565b6007805473ffffffffffffffffffffffffffffffffffffffff8381167fffffffffffffffffffffffff0000000000000000000000000000000000000000831681179093556040519116919082907f8be0079c531659141344cd1fd0a4f28419497f9722a3daafe3b4186f6b6457e090600090a35050565b8173ffffffffffffffffffffffffffffffffffffffff168373ffffffffffffffffffffffffffffffffffffffff16036110b4576040517f08c379a000000000000000000000000000000000000000000000000000000000815260206004820152601960248201527f4552433732313a20617070726f766520746f2063616c6c6572000000000000006044820152606401610577565b73ffffffffffffffffffffffffffffffffffffffff83811660008181526005602090815260408083209487168084529482529182902080547fffffffffffffffffffffffffffffffffffffffffffffffffffffffffffffff001686151590811790915591519182527f17307eab39ab6107e8899845ad3d59bd9653f200f220920489ca2b5937696c31910160405180910390a3505050565b611157848484610cb7565b6111638484848461141a565b6109d0576040517f08c379a000000000000000000000000000000000000000000000000000000000815260206004820152603260248201527f4552433732313a207472616e7366657220746f206e6f6e20455243373231526560448201527f63656976657220696d706c656d656e74657200000000000000000000000000006064820152608401610577565b60606111fa82610acc565b6000828152600660205260408120805461121390611edd565b80601f016020809104026020016040519081016040528092919081815260200182805461123f90611edd565b801561128c5780601f106112615761010080835404028352916020019161128c565b820191906000526020600020905b81548152906001019060200180831161126f57829003601f168201915b5050505050905060006112aa60408051602081019091526000815290565b905080516000036112bc575092915050565b8151156112ee5780826040516020016112d6929190611f8e565b60405160208183030381529060405292505050919050565b610caf8461160d565b61092a828260405180602001604052806000815250611681565b60008281526002602052604090205473ffffffffffffffffffffffffffffffffffffffff166113c2576040517f08c379a000000000000000000000000000000000000000000000000000000000815260206004820152602e60248201527f45524337323155524953746f726167653a2055524920736574206f66206e6f6e60448201527f6578697374656e7420746f6b656e0000000000000000000000000000000000006064820152608401610577565b600082815260066020526040902061063f828261200b565b6113e381611724565b600081815260066020526040902080546113fc90611edd565b15905061079f57600081815260066020526040812061079f91611ae8565b600073ffffffffffffffffffffffffffffffffffffffff84163b15611602576040517f150b7a0200000000000000000000000000000000000000000000000000000000815273ffffffffffffffffffffffffffffffffffffffff85169063150b7a0290611491903390899088908890600401612125565b6020604051808303816000875af19250505080156114ea575060408051601f3d9081017fffffffffffffffffffffffffffffffffffffffffffffffffffffffffffffffe01682019092526114e79181019061216e565b60015b6115b7573d808015611518576040519150601f19603f3d011682016040523d82523d6000602084013e61151d565b606091505b5080516000036115af576040517f08c379a000000000000000000000000000000000000000000000000000000000815260206004820152603260248201527f4552433732313a207472616e7366657220746f206e6f6e20455243373231526560448201527f63656976657220696d706c656d656e74657200000000000000000000000000006064820152608401610577565b805181602001fd5b7fffffffff00000000000000000000000000000000000000000000000000000000167f150b7a0200000000000000000000000000000000000000000000000000000000149050610caf565b506001949350505050565b606061161882610acc565b600061162f60408051602081019091526000815290565b9050600081511161164f576040518060200160405280600081525061167a565b80611659846117f1565b60405160200161166a929190611f8e565b6040516020818303038152906040525b9392505050565b61168b8383611926565b611698600084848461141a565b61063f576040517f08c379a000000000000000000000000000000000000000000000000000000000815260206004820152603260248201527f4552433732313a207472616e7366657220746f206e6f6e20455243373231526560448201527f63656976657220696d706c656d656e74657200000000000000000000000000006064820152608401610577565b600061172f826107a2565b905061173c600083610b57565b73ffffffffffffffffffffffffffffffffffffffff81166000908152600360205260408120805460019290611772908490611f5f565b909155505060008281526002602052604080822080547fffffffffffffffffffffffff00000000000000000000000000000000000000001690555183919073ffffffffffffffffffffffffffffffffffffffff8416907fddf252ad1be2c89b69c2b068fc378daa952ba7f163c4a11628f55a4df523b3ef908390a45050565b60608160000361183457505060408051808201909152600181527f3000000000000000000000000000000000000000000000000000000000000000602082015290565b8160005b811561185e57806118488161218b565b91506118579050600a836121f2565b9150611838565b60008167ffffffffffffffff81111561187957611879611d09565b6040519080825280601f01601f1916602001820160405280156118a3576020820181803683370190505b5090505b8415610caf576118b8600183611f5f565b91506118c5600a86612206565b6118d0906030611f76565b60f81b8183815181106118e5576118e561221a565b60200101907effffffffffffffffffffffffffffffffffffffffffffffffffffffffffffff1916908160001a90535061191f600a866121f2565b94506118a7565b73ffffffffffffffffffffffffffffffffffffffff82166119a3576040517f08c379a000000000000000000000000000000000000000000000000000000000815260206004820181905260248201527f4552433732313a206d696e7420746f20746865207a65726f20616464726573736044820152606401610577565b60008181526002602052604090205473ffffffffffffffffffffffffffffffffffffffff1615611a2f576040517f08c379a000000000000000000000000000000000000000000000000000000000815260206004820152601c60248201527f4552433732313a20746f6b656e20616c7265616479206d696e746564000000006044820152606401610577565b73ffffffffffffffffffffffffffffffffffffffff82166000908152600360205260408120805460019290611a65908490611f76565b909155505060008181526002602052604080822080547fffffffffffffffffffffffff00000000000000000000000000000000000000001673ffffffffffffffffffffffffffffffffffffffff861690811790915590518392907fddf252ad1be2c89b69c2b068fc378daa952ba7f163c4a11628f55a4df523b3ef908290a45050565b508054611af490611edd565b6000825580601f10611b04575050565b601f01602090049060005260206000209081019061079f91905b80821115611b325760008155600101611b1e565b5090565b7fffffffff000000000000000000000000000000000000000000000000000000008116811461079f57600080fd5b600060208284031215611b7657600080fd5b813561167a81611b36565b60005b83811015611b9c578181015183820152602001611b84565b838111156109d05750506000910152565b60008151808452611bc5816020860160208601611b81565b601f017fffffffffffffffffffffffffffffffffffffffffffffffffffffffffffffffe0169290920160200192915050565b60208152600061167a6020830184611bad565b600060208284031215611c1c57600080fd5b5035919050565b803573ffffffffffffffffffffffffffffffffffffffff81168114611c4757600080fd5b919050565b60008060408385031215611c5f57600080fd5b611c6883611c23565b946020939093013593505050565b600080600060608486031215611c8b57600080fd5b611c9484611c23565b9250611ca260208501611c23565b9150604084013590509250925092565b600060208284031215611cc457600080fd5b61167a82611c23565b60008060408385031215611ce057600080fd5b611ce983611c23565b915060208301358015158114611cfe57600080fd5b809150509250929050565b7f4e487b7100000000000000000000000000000000000000000000000000000000600052604160045260246000fd5b600067ffffffffffffffff80841115611d5357611d53611d09565b604051601f85017fffffffffffffffffffffffffffffffffffffffffffffffffffffffffffffffe0908116603f01168101908282118183101715611d9957611d99611d09565b81604052809350858152868686011115611db257600080fd5b858560208301376000602087830101525050509392505050565b60008060008060808587031215611de257600080fd5b611deb85611c23565b9350611df960208601611c23565b925060408501359150606085013567ffffffffffffffff811115611e1c57600080fd5b8501601f81018713611e2d57600080fd5b611e3c87823560208401611d38565b91505092959194509250565b60008060408385031215611e5b57600080fd5b611e6483611c23565b9150602083013567ffffffffffffffff811115611e8057600080fd5b8301601f81018513611e9157600080fd5b611ea085823560208401611d38565b9150509250929050565b60008060408385031215611ebd57600080fd5b611ec683611c23565b9150611ed460208401611c23565b90509250929050565b600181811c90821680611ef157607f821691505b602082108103611f2a577f4e487b7100000000000000000000000000000000000000000000000000000000600052602260045260246000fd5b50919050565b7f4e487b7100000000000000000000000000000000000000000000000000000000600052601160045260246000fd5b600082821015611f7157611f71611f30565b500390565b60008219821115611f8957611f89611f30565b500190565b60008351611fa0818460208801611b81565b835190830190611fb4818360208801611b81565b01949350505050565b601f82111561063f57600081815260208120601f850160051c81016020861015611fe45750805b601f850160051c820191505b8181101561200357828155600101611ff0565b505050505050565b815167ffffffffffffffff81111561202557612025611d09565b612039816120338454611edd565b84611fbd565b602080601f83116001811461208c57600084156120565750858301515b7fffffffffffffffffffffffffffffffffffffffffffffffffffffffffffffffff600386901b1c1916600185901b178555612003565b6000858152602081207fffffffffffffffffffffffffffffffffffffffffffffffffffffffffffffffe08616915b828110156120d9578886015182559484019460019091019084016120ba565b508582101561211557878501517fffffffffffffffffffffffffffffffffffffffffffffffffffffffffffffffff600388901b60f8161c191681555b5050505050600190811b01905550565b600073ffffffffffffffffffffffffffffffffffffffff8087168352808616602084015250836040830152608060608301526121646080830184611bad565b9695505050505050565b60006020828403121561218057600080fd5b815161167a81611b36565b60007fffffffffffffffffffffffffffffffffffffffffffffffffffffffffffffffff82036121bc576121bc611f30565b5060010190565b7f4e487b7100000000000000000000000000000000000000000000000000000000600052601260045260246000fd5b600082612201576122016121c3565b500490565b600082612215576122156121c3565b500690565b7f4e487b7100000000000000000000000000000000000000000000000000000000600052603260045260246000fdfea26469706673582212201cbc8e168c653c4b35f4e74e26b489838fb5574888661e01403f83723b04972c64736f6c634300080f0033",
    "linkReferences": {},
    "deployedLinkReferences": {}
}