{
  "_format": "hh-sol-artifact-1",
  "contractName": "StorageAccessible",
  "sourceName": "@gnosis.pm/safe-contracts/contracts/common/StorageAccessible.sol",
  "abi": [
    {
      "inputs": [
        {
          "internalType": "uint256",
          "name": "offset",
          "type": "uint256"
        },
        {
          "internalType": "uint256",
          "name": "length",
          "type": "uint256"
        }
      ],
      "name": "getStorageAt",
      "outputs": [
        {
          "internalType": "bytes",
          "name": "",
          "type": "bytes"
        }
      ],
      "stateMutability": "view",
      "type": "function"
    },
    {
      "inputs": [
        {
          "internalType": "address",
          "name": "targetContract",
          "type": "address"
        },
        {
          "internalType": "bytes",
          "name": "calldataPayload",
          "type": "bytes"
        }
      ],
      "name": "simulateAndRevert",
      "outputs": [],
      "stateMutability": "nonpayable",
      "type": "function"
    }
  ],
  "bytecode": "0x608060405234801561001057600080fd5b506103bb806100206000396000f3fe608060405234801561001057600080fd5b50600436106100365760003560e01c80635624b25b1461003b578063b4faba0914610064575b600080fd5b61004e610049366004610122565b610079565b60405161005b9190610144565b60405180910390f35b6100776100723660046101e6565b6100ff565b005b60606000610088836020610310565b67ffffffffffffffff8111156100a0576100a06101b7565b6040519080825280601f01601f1916602001820160405280156100ca576020820181803683370190505b50905060005b838110156100f75784810154602080830284010152806100ef8161034d565b9150506100d0565b509392505050565b600080825160208401855af480600052503d6020523d600060403e60403d016000fd5b6000806040838503121561013557600080fd5b50508035926020909101359150565b600060208083528351808285015260005b8181101561017157858101830151858201604001528201610155565b81811115610183576000604083870101525b50601f017fffffffffffffffffffffffffffffffffffffffffffffffffffffffffffffffe016929092016040019392505050565b7f4e487b7100000000000000000000000000000000000000000000000000000000600052604160045260246000fd5b600080604083850312156101f957600080fd5b823573ffffffffffffffffffffffffffffffffffffffff8116811461021d57600080fd5b9150602083013567ffffffffffffffff8082111561023a57600080fd5b818501915085601f83011261024e57600080fd5b813581811115610260576102606101b7565b604051601f82017fffffffffffffffffffffffffffffffffffffffffffffffffffffffffffffffe0908116603f011681019083821181831017156102a6576102a66101b7565b816040528281528860208487010111156102bf57600080fd5b8260208601602083013760006020848301015280955050505050509250929050565b7f4e487b7100000000000000000000000000000000000000000000000000000000600052601160045260246000fd5b6000817fffffffffffffffffffffffffffffffffffffffffffffffffffffffffffffffff0483118215151615610348576103486102e1565b500290565b60007fffffffffffffffffffffffffffffffffffffffffffffffffffffffffffffffff820361037e5761037e6102e1565b506001019056fea264697066735822122020cab955e2c90d63c023501fad44565066d06453bd1d8c6d2b3826c1e4ba76b264736f6c634300080f0033",
  "linkReferences": {},
  "deployedLinkReferences": {}
}