{
  "_format": "hh-sol-artifact-1",
  "contractName": "BLSAccountFactory",
  "sourceName": "contracts/samples/bls/BLSAccountFactory.sol",
  "abi": [
    {
      "inputs": [
        {
          "internalType": "contract IEntryPoint",
          "name": "entryPoint",
          "type": "address"
        },
        {
          "internalType": "address",
          "name": "aggregator",
          "type": "address"
        }
      ],
      "stateMutability": "nonpayable",
      "type": "constructor"
    },
    {
      "inputs": [],
      "name": "accountImplementation",
      "outputs": [
        {
          "internalType": "contract BLSAccount",
          "name": "",
          "type": "address"
        }
      ],
      "stateMutability": "view",
      "type": "function"
    },
    {
      "inputs": [
        {
          "internalType": "uint256",
          "name": "salt",
          "type": "uint256"
        },
        {
          "internalType": "uint256[4]",
          "name": "aPublicKey",
          "type": "uint256[4]"
        }
      ],
      "name": "createAccount",
      "outputs": [
        {
          "internalType": "contract BLSAccount",
          "name": "",
          "type": "address"
        }
      ],
      "stateMutability": "nonpayable",
      "type": "function"
    },
    {
      "inputs": [
        {
          "internalType": "uint256",
          "name": "salt",
          "type": "uint256"
        },
        {
          "internalType": "uint256[4]",
          "name": "aPublicKey",
          "type": "uint256[4]"
        }
      ],
      "name": "getAddress",
      "outputs": [
        {
          "internalType": "address",
          "name": "",
          "type": "address"
        }
      ],
      "stateMutability": "view",
      "type": "function"
    }
  ],
  "bytecode": "0x60a060405234801561001057600080fd5b5060405161336138038061336183398101604081905261002f916100aa565b818160405161003d90610085565b6001600160a01b03928316815291166020820152604001604051809103906000f080158015610070573d6000803e3d6000fd5b506001600160a01b0316608052506100e49050565b61238080610fe183390190565b6001600160a01b03811681146100a757600080fd5b50565b600080604083850312156100bd57600080fd5b82516100c881610092565b60208401519092506100d981610092565b809150509250929050565b608051610ed561010c600039600081816051015281816101b001526102d10152610ed56000f3fe60806040523480156200001157600080fd5b5060043610620000465760003560e01c806311464fbe146200004b57806319c2a1b2146200009c578063de3398dd14620000b3575b600080fd5b620000737f000000000000000000000000000000000000000000000000000000000000000081565b60405173ffffffffffffffffffffffffffffffffffffffff909116815260200160405180910390f35b62000073620000ad36600462000490565b620000ca565b62000073620000c4366004620004f4565b6200029f565b600081620000da60803662000586565b811462000147576040517f08c379a000000000000000000000000000000000000000000000000000000000815260206004820152601360248201527f77726f6e67207075626b6579206f666673657400000000000000000000000000604482015260640160405180910390fd5b60006200017e858560048060200260405190810160405280929190826004602002808284376000920191909152506200029f915050565b905073ffffffffffffffffffffffffffffffffffffffff81163b8015620001aa57509150620002999050565b8560001b7f000000000000000000000000000000000000000000000000000000000000000086604051602401620001e29190620005c5565b604080517fffffffffffffffffffffffffffffffffffffffffffffffffffffffffffffffe08184030181529181526020820180517bffffffffffffffffffffffffffffffffffffffffffffffffffffffff167fee472f360000000000000000000000000000000000000000000000000000000017905251620002649062000482565b620002719291906200060b565b8190604051809103906000f590508015801562000292573d6000803e3d6000fd5b5093505050505b92915050565b60006200047b8360001b60405180602001620002bb9062000482565b6020820181038252601f19601f820116604052507f0000000000000000000000000000000000000000000000000000000000000000856040516024016200030391906200067b565b604080517fffffffffffffffffffffffffffffffffffffffffffffffffffffffffffffffe0818403018152918152602080830180517bffffffffffffffffffffffffffffffffffffffffffffffffffffffff167fee472f360000000000000000000000000000000000000000000000000000000017905290516200038a939291016200060b565b604080517fffffffffffffffffffffffffffffffffffffffffffffffffffffffffffffffe081840301815290829052620003c89291602001620006ae565b604080517fffffffffffffffffffffffffffffffffffffffffffffffffffffffffffffffe081840301815282825280516020918201207fff00000000000000000000000000000000000000000000000000000000000000848301527fffffffffffffffffffffffffffffffffffffffff0000000000000000000000003060601b16602185015260358401859052605580850182905283518086039091018152607590940190925282519201919091206000905b9392505050565b6107be80620006e283390190565b60008060a08385031215620004a457600080fd5b823591508360a084011115620004b957600080fd5b50926020919091019150565b7f4e487b7100000000000000000000000000000000000000000000000000000000600052604160045260246000fd5b60008060a083850312156200050857600080fd5b82359150602084603f8501126200051e57600080fd5b6040516080810181811067ffffffffffffffff82111715620005445762000544620004c5565b6040528060a08601878111156200055a57600080fd5b8387015b818110156200057757803583529184019184016200055e565b50505080925050509250929050565b600082821015620005c0577f4e487b7100000000000000000000000000000000000000000000000000000000600052601160045260246000fd5b500390565b6080818101908383376000815292915050565b60005b83811015620005f5578181015183820152602001620005db565b8381111562000605576000848401525b50505050565b73ffffffffffffffffffffffffffffffffffffffff83168152604060208201526000825180604084015262000648816060850160208701620005d8565b601f017fffffffffffffffffffffffffffffffffffffffffffffffffffffffffffffffe016919091016060019392505050565b60808101818360005b6004811015620006a557815183526020928301929091019060010162000684565b50505092915050565b60008351620006c2818460208801620005d8565b835190830190620006d8818360208801620005d8565b0194935050505056fe60806040526040516107be3803806107be83398101604081905261002291610314565b61002e82826000610035565b5050610431565b61003e8361006b565b60008251118061004b5750805b156100665761006483836100ab60201b6100291760201c565b505b505050565b610074816100d7565b6040516001600160a01b038216907fbc7cd75a20ee27fd9adebab32041f755214dbc6bffa90cc0225b39da2e5c2d3b90600090a250565b60606100d08383604051806060016040528060278152602001610797602791396101a9565b9392505050565b6100ea8161028760201b6100551760201c565b6101515760405162461bcd60e51b815260206004820152602d60248201527f455243313936373a206e657720696d706c656d656e746174696f6e206973206e60448201526c1bdd08184818dbdb9d1c9858dd609a1b60648201526084015b60405180910390fd5b806101887f360894a13ba1a3210667c828492db98dca3e2076cc3735a920a3ca505d382bbc60001b61029660201b6100711760201c565b80546001600160a01b0319166001600160a01b039290921691909117905550565b60606001600160a01b0384163b6102115760405162461bcd60e51b815260206004820152602660248201527f416464726573733a2064656c65676174652063616c6c20746f206e6f6e2d636f6044820152651b9d1c9858dd60d21b6064820152608401610148565b600080856001600160a01b03168560405161022c91906103e2565b600060405180830381855af49150503d8060008114610267576040519150601f19603f3d011682016040523d82523d6000602084013e61026c565b606091505b50909250905061027d828286610299565b9695505050505050565b6001600160a01b03163b151590565b90565b606083156102a85750816100d0565b8251156102b85782518084602001fd5b8160405162461bcd60e51b815260040161014891906103fe565b634e487b7160e01b600052604160045260246000fd5b60005b838110156103035781810151838201526020016102eb565b838111156100645750506000910152565b6000806040838503121561032757600080fd5b82516001600160a01b038116811461033e57600080fd5b60208401519092506001600160401b038082111561035b57600080fd5b818501915085601f83011261036f57600080fd5b815181811115610381576103816102d2565b604051601f8201601f19908116603f011681019083821181831017156103a9576103a96102d2565b816040528281528860208487010111156103c257600080fd5b6103d38360208301602088016102e8565b80955050505050509250929050565b600082516103f48184602087016102e8565b9190910192915050565b602081526000825180602084015261041d8160408501602087016102e8565b601f01601f19169190910160400192915050565b610357806104406000396000f3fe60806040523661001357610011610017565b005b6100115b610027610022610074565b6100b9565b565b606061004e83836040518060600160405280602781526020016102fb602791396100dd565b9392505050565b73ffffffffffffffffffffffffffffffffffffffff163b151590565b90565b60006100b47f360894a13ba1a3210667c828492db98dca3e2076cc3735a920a3ca505d382bbc5473ffffffffffffffffffffffffffffffffffffffff1690565b905090565b3660008037600080366000845af43d6000803e8080156100d8573d6000f35b3d6000fd5b606073ffffffffffffffffffffffffffffffffffffffff84163b610188576040517f08c379a000000000000000000000000000000000000000000000000000000000815260206004820152602660248201527f416464726573733a2064656c65676174652063616c6c20746f206e6f6e2d636f60448201527f6e7472616374000000000000000000000000000000000000000000000000000060648201526084015b60405180910390fd5b6000808573ffffffffffffffffffffffffffffffffffffffff16856040516101b0919061028d565b600060405180830381855af49150503d80600081146101eb576040519150601f19603f3d011682016040523d82523d6000602084013e6101f0565b606091505b509150915061020082828661020a565b9695505050505050565b6060831561021957508161004e565b8251156102295782518084602001fd5b816040517f08c379a000000000000000000000000000000000000000000000000000000000815260040161017f91906102a9565b60005b83811015610278578181015183820152602001610260565b83811115610287576000848401525b50505050565b6000825161029f81846020870161025d565b9190910192915050565b60208152600082518060208401526102c881604085016020870161025d565b601f017fffffffffffffffffffffffffffffffffffffffffffffffffffffffffffffffe016919091016040019291505056fe416464726573733a206c6f772d6c6576656c2064656c65676174652063616c6c206661696c6564a264697066735822122060d4a5158209d03c36f809682517d998848f0c0bded4793e053bd58f022e264c64736f6c634300080f0033416464726573733a206c6f772d6c6576656c2064656c65676174652063616c6c206661696c6564a264697066735822122099a9fa7506733fdc011270941483c2ecd447660f37e1149c52b7788cc0dc53ad64736f6c634300080f003360e0604052306080523480156200001557600080fd5b50604051620023803803806200238083398101604081905262000038916200013f565b6001600160a01b03821660a052816200005062000064565b506001600160a01b031660c052506200017e565b600054610100900460ff1615620000d15760405162461bcd60e51b815260206004820152602760248201527f496e697469616c697a61626c653a20636f6e747261637420697320696e697469604482015266616c697a696e6760c81b606482015260840160405180910390fd5b60005460ff908116101562000124576000805460ff191660ff9081179091556040519081527f7f26b83ff96e1f2b6a682f133852f6798a09c465da95921460cefb38474024989060200160405180910390a15b565b6001600160a01b03811681146200013c57600080fd5b50565b600080604083850312156200015357600080fd5b8251620001608162000126565b6020840151909250620001738162000126565b809150509250929050565b60805160a05160c051612185620001fb6000396000818161017201526115440152600081816102cb01528181610707015281816107ae01528181610b9001528181610f610152818161139f01526116ff0152600081816104d50152818161058501528181610872015281816109220152610a6b01526121856000f3fe6080604052600436106101125760003560e01c806352d1902d116100a5578063b61d27f611610074578063c4d66de811610059578063c4d66de814610324578063e02afbae14610344578063ee472f361461036657600080fd5b8063b61d27f6146102ef578063c399ec881461030f57600080fd5b806352d1902d146102475780638da5cb5b1461025c578063affed0e014610299578063b0d691fe146102bc57600080fd5b80633a871cdd116100e15780633a871cdd146101de5780634a58db191461020c5780634d44560d146102145780634f1ef2861461023457600080fd5b806318dfb3c71461011e57806318fc5c4414610140578063245a7bfc146101605780633659cfe6146101be57600080fd5b3661011957005b600080fd5b34801561012a57600080fd5b5061013e610139366004611b1f565b610386565b005b34801561014c57600080fd5b5061013e61015b366004611c09565b6104aa565b34801561016c57600080fd5b506101947f000000000000000000000000000000000000000000000000000000000000000081565b60405173ffffffffffffffffffffffffffffffffffffffff90911681526020015b60405180910390f35b3480156101ca57600080fd5b5061013e6101d9366004611ca9565b6104be565b3480156101ea57600080fd5b506101fe6101f9366004611cc6565b6106c0565b6040519081526020016101b5565b61013e610705565b34801561022057600080fd5b5061013e61022f366004611d1a565b6107a4565b61013e610242366004611d46565b61085b565b34801561025357600080fd5b506101fe610a51565b34801561026857600080fd5b50600154610194906c01000000000000000000000000900473ffffffffffffffffffffffffffffffffffffffff1681565b3480156102a557600080fd5b506001546bffffffffffffffffffffffff166101fe565b3480156102c857600080fd5b507f0000000000000000000000000000000000000000000000000000000000000000610194565b3480156102fb57600080fd5b5061013e61030a366004611e0c565b610b3d565b34801561031b57600080fd5b506101fe610b8c565b34801561033057600080fd5b5061013e61033f366004611ca9565b610c44565b34801561035057600080fd5b50610359610dd7565b6040516101b59190611eb8565b34801561037257600080fd5b5061013e610381366004611c09565b610e12565b61038e610f49565b8281146103fc576040517f08c379a000000000000000000000000000000000000000000000000000000000815260206004820152601360248201527f77726f6e67206172726179206c656e677468730000000000000000000000000060448201526064015b60405180910390fd5b60005b838110156104a35761049185858381811061041c5761041c611ec6565b90506020020160208101906104319190611ca9565b600085858581811061044557610445611ec6565b90506020028101906104579190611ef5565b8080601f01602080910402602001604051908101604052809392919081815260200183838082843760009201919091525061101c92505050565b8061049b81611f89565b9150506103ff565b5050505050565b6104b2611099565b6104bb81611134565b50565b73ffffffffffffffffffffffffffffffffffffffff7f0000000000000000000000000000000000000000000000000000000000000000163003610583576040517f08c379a000000000000000000000000000000000000000000000000000000000815260206004820152602c60248201527f46756e6374696f6e206d7573742062652063616c6c6564207468726f7567682060448201527f64656c656761746563616c6c000000000000000000000000000000000000000060648201526084016103f3565b7f000000000000000000000000000000000000000000000000000000000000000073ffffffffffffffffffffffffffffffffffffffff166105f87f360894a13ba1a3210667c828492db98dca3e2076cc3735a920a3ca505d382bbc5473ffffffffffffffffffffffffffffffffffffffff1690565b73ffffffffffffffffffffffffffffffffffffffff161461069b576040517f08c379a000000000000000000000000000000000000000000000000000000000815260206004820152602c60248201527f46756e6374696f6e206d7573742062652063616c6c6564207468726f7567682060448201527f6163746976652070726f7879000000000000000000000000000000000000000060648201526084016103f3565b6106a48161117b565b604080516000808252602082019092526104bb91839190611183565b60006106ca611387565b6106d48484611426565b90506106e36040850185611ef5565b90506000036106f5576106f58461157f565b6106fe82611648565b9392505050565b7f00000000000000000000000000000000000000000000000000000000000000006040517fb760faf900000000000000000000000000000000000000000000000000000000815230600482015273ffffffffffffffffffffffffffffffffffffffff919091169063b760faf99034906024016000604051808303818588803b15801561079057600080fd5b505af11580156104a3573d6000803e3d6000fd5b6107ac611099565b7f00000000000000000000000000000000000000000000000000000000000000006040517f205c287800000000000000000000000000000000000000000000000000000000815273ffffffffffffffffffffffffffffffffffffffff848116600483015260248201849052919091169063205c287890604401600060405180830381600087803b15801561083f57600080fd5b505af1158015610853573d6000803e3d6000fd5b505050505050565b73ffffffffffffffffffffffffffffffffffffffff7f0000000000000000000000000000000000000000000000000000000000000000163003610920576040517f08c379a000000000000000000000000000000000000000000000000000000000815260206004820152602c60248201527f46756e6374696f6e206d7573742062652063616c6c6564207468726f7567682060448201527f64656c656761746563616c6c000000000000000000000000000000000000000060648201526084016103f3565b7f000000000000000000000000000000000000000000000000000000000000000073ffffffffffffffffffffffffffffffffffffffff166109957f360894a13ba1a3210667c828492db98dca3e2076cc3735a920a3ca505d382bbc5473ffffffffffffffffffffffffffffffffffffffff1690565b73ffffffffffffffffffffffffffffffffffffffff1614610a38576040517f08c379a000000000000000000000000000000000000000000000000000000000815260206004820152602c60248201527f46756e6374696f6e206d7573742062652063616c6c6564207468726f7567682060448201527f6163746976652070726f7879000000000000000000000000000000000000000060648201526084016103f3565b610a418261117b565b610a4d82826001611183565b5050565b60003073ffffffffffffffffffffffffffffffffffffffff7f00000000000000000000000000000000000000000000000000000000000000001614610b18576040517f08c379a000000000000000000000000000000000000000000000000000000000815260206004820152603860248201527f555550535570677261646561626c653a206d757374206e6f742062652063616c60448201527f6c6564207468726f7567682064656c656761746563616c6c000000000000000060648201526084016103f3565b507f360894a13ba1a3210667c828492db98dca3e2076cc3735a920a3ca505d382bbc90565b610b45610f49565b610b86848484848080601f01602080910402602001604051908101604052809392919081815260200183838082843760009201919091525061101c92505050565b50505050565b60007f00000000000000000000000000000000000000000000000000000000000000006040517f70a0823100000000000000000000000000000000000000000000000000000000815230600482015273ffffffffffffffffffffffffffffffffffffffff91909116906370a0823190602401602060405180830381865afa158015610c1b573d6000803e3d6000fd5b505050506040513d601f19601f82011682018060405250810190610c3f9190611fc1565b905090565b600054610100900460ff1615808015610c645750600054600160ff909116105b80610c7e5750303b158015610c7e575060005460ff166001145b610d0a576040517f08c379a000000000000000000000000000000000000000000000000000000000815260206004820152602e60248201527f496e697469616c697a61626c653a20636f6e747261637420697320616c72656160448201527f647920696e697469616c697a656400000000000000000000000000000000000060648201526084016103f3565b600080547fffffffffffffffffffffffffffffffffffffffffffffffffffffffffffffff001660011790558015610d6857600080547fffffffffffffffffffffffffffffffffffffffffffffffffffffffffffff00ff166101001790555b610d71826116b3565b8015610a4d57600080547fffffffffffffffffffffffffffffffffffffffffffffffffffffffffffff00ff169055604051600181527f7f26b83ff96e1f2b6a682f133852f6798a09c465da95921460cefb38474024989060200160405180910390a15050565b610ddf611a62565b6040805160808101918290529060029060049082845b815481526020019060010190808311610df5575050505050905090565b600054610100900460ff1615808015610e325750600054600160ff909116105b80610e4c5750303b158015610e4c575060005460ff166001145b610ed8576040517f08c379a000000000000000000000000000000000000000000000000000000000815260206004820152602e60248201527f496e697469616c697a61626c653a20636f6e747261637420697320616c72656160448201527f647920696e697469616c697a656400000000000000000000000000000000000060648201526084016103f3565b600080547fffffffffffffffffffffffffffffffffffffffffffffffffffffffffffffff001660011790558015610f3657600080547fffffffffffffffffffffffffffffffffffffffffffffffffffffffffffff00ff166101001790555b610f4060006116b3565b610d7182611134565b3373ffffffffffffffffffffffffffffffffffffffff7f0000000000000000000000000000000000000000000000000000000000000000161480610fb457506001546c01000000000000000000000000900473ffffffffffffffffffffffffffffffffffffffff1633145b61101a576040517f08c379a000000000000000000000000000000000000000000000000000000000815260206004820181905260248201527f6163636f756e743a206e6f74204f776e6572206f7220456e747279506f696e7460448201526064016103f3565b565b6000808473ffffffffffffffffffffffffffffffffffffffff1684846040516110459190612006565b60006040518083038185875af1925050503d8060008114611082576040519150601f19603f3d011682016040523d82523d6000602084013e611087565b606091505b5091509150816104a357805160208201fd5b6001546c01000000000000000000000000900473ffffffffffffffffffffffffffffffffffffffff163314806110ce57503330145b61101a576040517f08c379a000000000000000000000000000000000000000000000000000000000815260206004820152600a60248201527f6f6e6c79206f776e65720000000000000000000000000000000000000000000060448201526064016103f3565b7f42e4c4ce1432650f17e41c4ea77ed12c0ab20b229d3ffd84a2ebc9f8abb25a83600282604051611166929190612022565b60405180910390a1610a4d6002826004611a80565b6104bb611099565b7f4910fdfa16fed3260ed0e7147f7cc6da11a60208b5b9406d12a635614ffd91435460ff16156111bb576111b68361174b565b505050565b8273ffffffffffffffffffffffffffffffffffffffff166352d1902d6040518163ffffffff1660e01b8152600401602060405180830381865afa925050508015611240575060408051601f3d9081017fffffffffffffffffffffffffffffffffffffffffffffffffffffffffffffffe016820190925261123d91810190611fc1565b60015b6112cc576040517f08c379a000000000000000000000000000000000000000000000000000000000815260206004820152602e60248201527f45524331393637557067726164653a206e657720696d706c656d656e7461746960448201527f6f6e206973206e6f74205555505300000000000000000000000000000000000060648201526084016103f3565b7f360894a13ba1a3210667c828492db98dca3e2076cc3735a920a3ca505d382bbc811461137b576040517f08c379a000000000000000000000000000000000000000000000000000000000815260206004820152602960248201527f45524331393637557067726164653a20756e737570706f727465642070726f7860448201527f6961626c6555554944000000000000000000000000000000000000000000000060648201526084016103f3565b506111b6838383611855565b3373ffffffffffffffffffffffffffffffffffffffff7f0000000000000000000000000000000000000000000000000000000000000000161461101a576040517f08c379a000000000000000000000000000000000000000000000000000000000815260206004820152601c60248201527f6163636f756e743a206e6f742066726f6d20456e747279506f696e740000000060448201526064016103f3565b60006114356040840184611ef5565b159050611523576000611446610dd7565b6040516020016114569190611eb8565b6040516020818303038152906040528051906020012090508084806040019061147f9190611ef5565b608061148e6040890189611ef5565b61149992915061205b565b6114a4928290612072565b6040516114b292919061209c565b604051809103902014611521576040517f08c379a000000000000000000000000000000000000000000000000000000000815260206004820152600c60248201527f77726f6e67207075626b6579000000000000000000000000000000000000000060448201526064016103f3565b505b6040805160608101825273ffffffffffffffffffffffffffffffffffffffff7f00000000000000000000000000000000000000000000000000000000000000001680825260006020830181905291909201525b90505b92915050565b600180546020830135916bffffffffffffffffffffffff9091169060006115a5836120ac565b91906101000a8154816bffffffffffffffffffffffff02191690836bffffffffffffffffffffffff1602179055506bffffffffffffffffffffffff16146104bb576040517f08c379a000000000000000000000000000000000000000000000000000000000815260206004820152601660248201527f6163636f756e743a20696e76616c6964206e6f6e63650000000000000000000060448201526064016103f3565b80156104bb5760405160009033907fffffffffffffffffffffffffffffffffffffffffffffffffffffffffffffffff90849084818181858888f193505050503d80600081146104a3576040519150601f19603f3d011682016040523d82523d6000602084013e6104a3565b600180546bffffffffffffffffffffffff166c0100000000000000000000000073ffffffffffffffffffffffffffffffffffffffff8481168202929092179283905560405192048116917f0000000000000000000000000000000000000000000000000000000000000000909116907f47e55c76e7a6f1fd8996a1da8008c1ea29699cca35e7bcd057f2dec313b6e5de90600090a350565b73ffffffffffffffffffffffffffffffffffffffff81163b6117ef576040517f08c379a000000000000000000000000000000000000000000000000000000000815260206004820152602d60248201527f455243313936373a206e657720696d706c656d656e746174696f6e206973206e60448201527f6f74206120636f6e74726163740000000000000000000000000000000000000060648201526084016103f3565b7f360894a13ba1a3210667c828492db98dca3e2076cc3735a920a3ca505d382bbc80547fffffffffffffffffffffffff00000000000000000000000000000000000000001673ffffffffffffffffffffffffffffffffffffffff92909216919091179055565b61185e8361187a565b60008251118061186b5750805b156111b657610b8683836118c7565b6118838161174b565b60405173ffffffffffffffffffffffffffffffffffffffff8216907fbc7cd75a20ee27fd9adebab32041f755214dbc6bffa90cc0225b39da2e5c2d3b90600090a250565b6060611576838360405180606001604052806027815260200161212960279139606073ffffffffffffffffffffffffffffffffffffffff84163b61198d576040517f08c379a000000000000000000000000000000000000000000000000000000000815260206004820152602660248201527f416464726573733a2064656c65676174652063616c6c20746f206e6f6e2d636f60448201527f6e7472616374000000000000000000000000000000000000000000000000000060648201526084016103f3565b6000808573ffffffffffffffffffffffffffffffffffffffff16856040516119b59190612006565b600060405180830381855af49150503d80600081146119f0576040519150601f19603f3d011682016040523d82523d6000602084013e6119f5565b606091505b5091509150611a05828286611a0f565b9695505050505050565b60608315611a1e5750816106fe565b825115611a2e5782518084602001fd5b816040517f08c379a00000000000000000000000000000000000000000000000000000000081526004016103f391906120d7565b60405180608001604052806004906020820280368337509192915050565b8260048101928215611aae579160200282015b82811115611aae578251825591602001919060010190611a93565b50611aba929150611abe565b5090565b5b80821115611aba5760008155600101611abf565b60008083601f840112611ae557600080fd5b50813567ffffffffffffffff811115611afd57600080fd5b6020830191508360208260051b8501011115611b1857600080fd5b9250929050565b60008060008060408587031215611b3557600080fd5b843567ffffffffffffffff80821115611b4d57600080fd5b611b5988838901611ad3565b90965094506020870135915080821115611b7257600080fd5b50611b7f87828801611ad3565b95989497509550505050565b7f4e487b7100000000000000000000000000000000000000000000000000000000600052604160045260246000fd5b604051601f82017fffffffffffffffffffffffffffffffffffffffffffffffffffffffffffffffe016810167ffffffffffffffff81118282101715611c0157611c01611b8b565b604052919050565b600060808284031215611c1b57600080fd5b82601f830112611c2a57600080fd5b6040516080810181811067ffffffffffffffff82111715611c4d57611c4d611b8b565b604052806080840185811115611c6257600080fd5b845b81811015611c7c578035835260209283019201611c64565b509195945050505050565b73ffffffffffffffffffffffffffffffffffffffff811681146104bb57600080fd5b600060208284031215611cbb57600080fd5b81356106fe81611c87565b600080600060608486031215611cdb57600080fd5b833567ffffffffffffffff811115611cf257600080fd5b84016101608187031215611d0557600080fd5b95602085013595506040909401359392505050565b60008060408385031215611d2d57600080fd5b8235611d3881611c87565b946020939093013593505050565b60008060408385031215611d5957600080fd5b8235611d6481611c87565b915060208381013567ffffffffffffffff80821115611d8257600080fd5b818601915086601f830112611d9657600080fd5b813581811115611da857611da8611b8b565b611dd8847fffffffffffffffffffffffffffffffffffffffffffffffffffffffffffffffe0601f84011601611bba565b91508082528784828501011115611dee57600080fd5b80848401858401376000848284010152508093505050509250929050565b60008060008060608587031215611e2257600080fd5b8435611e2d81611c87565b935060208501359250604085013567ffffffffffffffff80821115611e5157600080fd5b818701915087601f830112611e6557600080fd5b813581811115611e7457600080fd5b886020828501011115611e8657600080fd5b95989497505060200194505050565b8060005b6004811015610b86578151845260209384019390910190600101611e99565b608081016115798284611e95565b7f4e487b7100000000000000000000000000000000000000000000000000000000600052603260045260246000fd5b60008083357fffffffffffffffffffffffffffffffffffffffffffffffffffffffffffffffe1843603018112611f2a57600080fd5b83018035915067ffffffffffffffff821115611f4557600080fd5b602001915036819003821315611b1857600080fd5b7f4e487b7100000000000000000000000000000000000000000000000000000000600052601160045260246000fd5b60007fffffffffffffffffffffffffffffffffffffffffffffffffffffffffffffffff8203611fba57611fba611f5a565b5060010190565b600060208284031215611fd357600080fd5b5051919050565b60005b83811015611ff5578181015183820152602001611fdd565b83811115610b865750506000910152565b60008251612018818460208701611fda565b9190910192915050565b6101008101818460005b600481101561204b57815483526020909201916001918201910161202c565b5050506106fe6080830184611e95565b60008282101561206d5761206d611f5a565b500390565b6000808585111561208257600080fd5b8386111561208f57600080fd5b5050820193919092039150565b8183823760009101908152919050565b60006bffffffffffffffffffffffff8083168181036120cd576120cd611f5a565b6001019392505050565b60208152600082518060208401526120f6816040850160208701611fda565b601f017fffffffffffffffffffffffffffffffffffffffffffffffffffffffffffffffe016919091016040019291505056fe416464726573733a206c6f772d6c6576656c2064656c65676174652063616c6c206661696c6564a264697066735822122061a02965864af833b0d41ccbee08ecafb4aad2a487ccd91d0fbdd7b44cbca09364736f6c634300080f0033",
  "linkReferences": {},
  "deployedLinkReferences": {}
}